{
  "contractName": "First",
  "abi": [
    {
      "inputs": [],
      "name": "mydata",
      "outputs": [
        {
          "internalType": "int256",
          "name": "",
          "type": "int256"
        }
      ],
      "stateMutability": "view",
      "type": "function"
    },
    {
      "inputs": [
        {
          "internalType": "int256",
          "name": "_data",
          "type": "int256"
        }
      ],
      "name": "GetDouble",
      "outputs": [
        {
          "internalType": "int256",
          "name": "_output",
          "type": "int256"
        }
      ],
      "stateMutability": "nonpayable",
      "type": "function"
    }
  ],
  "bytecode": "0x608060405234801561001057600080fd5b506102bc806100206000396000f3fe608060405234801561001057600080fd5b50600436106100365760003560e01c80631d24b7e91461003b5780636f18a95f14610059575b600080fd5b610043610089565b60405161005091906100c7565b60405180910390f35b610073600480360381019061006e9190610113565b61008f565b60405161008091906100c7565b60405180910390f35b60005481565b600060028261009e919061016f565b6000819055506000549050919050565b6000819050919050565b6100c1816100ae565b82525050565b60006020820190506100dc60008301846100b8565b92915050565b600080fd5b6100f0816100ae565b81146100fb57600080fd5b50565b60008135905061010d816100e7565b92915050565b600060208284031215610129576101286100e2565b5b6000610137848285016100fe565b91505092915050565b7f4e487b7100000000000000000000000000000000000000000000000000000000600052601160045260246000fd5b600061017a826100ae565b9150610185836100ae565b9250827f7fffffffffffffffffffffffffffffffffffffffffffffffffffffffffffffff04821160008413600084131616156101c4576101c3610140565b5b817f8000000000000000000000000000000000000000000000000000000000000000058312600084126000841316161561020157610200610140565b5b827f8000000000000000000000000000000000000000000000000000000000000000058212600084136000841216161561023e5761023d610140565b5b827f7fffffffffffffffffffffffffffffffffffffffffffffffffffffffffffffff058212600084126000841216161561027b5761027a610140565b5b82820290509291505056fea264697066735822122029ed54bd336d0e8157c4543da23f8bbd4e44193411dc525207dc909227eda3f464736f6c634300080c0033",
  "immutableReferences": {},
  "source": "// SPDX-License-Identifier: MIT\npragma solidity >=0.7.0 <0.9.0;\ncontract First { \n        int public mydata; \n        function GetDouble(int _data) public returns (int _output) { \n                   mydata = _data * 2; \n                   return mydata; \n         } \n     } ",
  "sourcePath": "/Users/riteshmodi/TruffleProject/contracts/first.sol",
  "compiler": {
    "name": "solc",
    "version": "0.8.12+commit.f00d7308.Emscripten.clang"
  },
  "schemaVersion": "3.4.6",
  "updatedAt": "2022-03-27T06:56:55.060Z",
  "devdoc": {
    "kind": "dev",
    "methods": {},
    "version": 1
  },
  "userdoc": {
    "kind": "user",
    "methods": {},
    "version": 1
  }
}