{
  "contractName": "Second",
  "abi": [
    {
      "inputs": [
        {
          "internalType": "address",
          "name": "_first",
          "type": "address"
        }
      ],
      "stateMutability": "nonpayable",
      "type": "constructor"
    },
    {
      "inputs": [],
      "name": "_data",
      "outputs": [
        {
          "internalType": "int256",
          "name": "",
          "type": "int256"
        }
      ],
      "stateMutability": "view",
      "type": "function"
    },
    {
      "inputs": [],
      "name": "SetData",
      "outputs": [],
      "stateMutability": "nonpayable",
      "type": "function"
    }
  ],
  "bytecode": "0x608060405234801561001057600080fd5b50604051610354380380610354833981810160405281019061003291906100db565b806000806101000a81548173ffffffffffffffffffffffffffffffffffffffff021916908373ffffffffffffffffffffffffffffffffffffffff16021790555050610108565b600080fd5b600073ffffffffffffffffffffffffffffffffffffffff82169050919050565b60006100a88261007d565b9050919050565b6100b88161009d565b81146100c357600080fd5b50565b6000815190506100d5816100af565b92915050565b6000602082840312156100f1576100f0610078565b5b60006100ff848285016100c6565b91505092915050565b61023d806101176000396000f3fe608060405234801561001057600080fd5b50600436106100365760003560e01c806368beab3f1461003b5780636ca89d1a14610059575b600080fd5b610043610063565b604051610050919061012e565b60405180910390f35b610061610069565b005b60015481565b60008060009054906101000a900473ffffffffffffffffffffffffffffffffffffffff1690508073ffffffffffffffffffffffffffffffffffffffff16636f18a95f60156040518263ffffffff1660e01b81526004016100c9919061018e565b6020604051808303816000875af11580156100e8573d6000803e3d6000fd5b505050506040513d601f19601f8201168201806040525081019061010c91906101da565b60018190555050565b6000819050919050565b61012881610115565b82525050565b6000602082019050610143600083018461011f565b92915050565b6000819050919050565b6000819050919050565b600061017861017361016e84610149565b610153565b610115565b9050919050565b6101888161015d565b82525050565b60006020820190506101a3600083018461017f565b92915050565b600080fd5b6101b781610115565b81146101c257600080fd5b50565b6000815190506101d4816101ae565b92915050565b6000602082840312156101f0576101ef6101a9565b5b60006101fe848285016101c5565b9150509291505056fea2646970667358221220913792c673071bf946aa55a67129b6d31d277b7c6ebd6beaee23b684f41992bb64736f6c634300080c0033",
  "immutableReferences": {},
  "source": "// SPDX-License-Identifier: MIT\npragma solidity >=0.7.0 <0.9.0;\nimport \"./first.sol\"; \n         contract Second { \n                address firstAddress;  \n                int public _data; \n               constructor(address _first) { \n                   firstAddress = _first; \n               } \n              function SetData() public { \n                 First h = First(firstAddress); \n                _data = h.GetDouble(21); \n             } \n       } ",
  "sourcePath": "/Users/riteshmodi/TruffleProject/contracts/second.sol",
  "compiler": {
    "name": "solc",
    "version": "0.8.12+commit.f00d7308.Emscripten.clang"
  },
  "schemaVersion": "3.4.6",
  "updatedAt": "2022-03-27T06:56:55.063Z",
  "devdoc": {
    "kind": "dev",
    "methods": {},
    "version": 1
  },
  "userdoc": {
    "kind": "user",
    "methods": {},
    "version": 1
  }
}